{
  "contractName": "MyContract",
  "abi": [
    {
      "constant": true,
      "inputs": [],
      "name": "getCurrentImplementation",
      "outputs": [
        {
          "name": "",
          "type": "address"
        }
      ],
      "payable": false,
      "stateMutability": "view",
      "type": "function"
    }
  ],
  "bytecode": "0x608060405234801561001057600080fd5b50610183806100206000396000f300608060405260043610610041576000357c0100000000000000000000000000000000000000000000000000000000900463ffffffff16806329cca56914610046575b600080fd5b34801561005257600080fd5b5061005b61009d565b604051808273ffffffffffffffffffffffffffffffffffffffff1673ffffffffffffffffffffffffffffffffffffffff16815260200191505060405180910390f35b60007307865c6e87b9f70255377e024ace6630c1eaa37f73ffffffffffffffffffffffffffffffffffffffff16635c60da1b6040518163ffffffff167c0100000000000000000000000000000000000000000000000000000000028152600401602060405180830381600087803b15801561011757600080fd5b505af115801561012b573d6000803e3d6000fd5b505050506040513d602081101561014157600080fd5b81019080805190602001909291905050509050905600a165627a7a72305820874f723acf771ec10575d832134d7526ffccc7305b3dbf98104656bb2cdb47220029",
  "source": "pragma solidity ^0.4.25;\n\ncontract Proxy {\n    function() external payable {\n        _fallback();\n    }\n\n    function _implementation() internal view returns (address);\n\n    function _delegate(address implementation) internal {\n        assembly {\n            calldatacopy(0, 0, calldatasize)\n\n            let result := delegatecall(\n                gas,\n                implementation,\n                0,\n                calldatasize,\n                0,\n                0\n            )\n\n            returndatacopy(0, 0, returndatasize)\n\n            switch result\n            case 0 {\n                revert(0, returndatasize)\n            }\n            default {\n                return(0, returndatasize)\n            }\n        }\n    }\n\n    function _willFallback() internal {}\n\n    function _fallback() internal {\n        _willFallback();\n        _delegate(_implementation());\n    }\n}\n\nlibrary AddressUtils {\n    function isContract(address addr) internal view returns (bool) {\n        uint256 size;\n        assembly {\n            size := extcodesize(addr)\n        }\n        return size > 0;\n    }\n}\n\ncontract UpgradeabilityProxy is Proxy {\n    event Upgraded(address implementation);\n\n    bytes32 private constant IMPLEMENTATION_SLOT =\n        0x7050c9e0f4ca769c69bd3a8ef740bc37934f8e2c036e5a723fd8ee048ed3f8c3;\n\n    constructor(address _implementation) public {\n        assert(\n            IMPLEMENTATION_SLOT ==\n                keccak256(\"org.zeppelinos.proxy.implementation\")\n        );\n\n        _setImplementation(_implementation);\n    }\n\n    function _implementation() internal view returns (address impl) {\n        bytes32 slot = IMPLEMENTATION_SLOT;\n        assembly {\n            impl := sload(slot)\n        }\n    }\n\n    function _upgradeTo(address newImplementation) internal {\n        _setImplementation(newImplementation);\n        emit Upgraded(newImplementation);\n    }\n\n    function _setImplementation(address newImplementation) private {\n        require(\n            AddressUtils.isContract(newImplementation),\n            \"Cannot set a proxy implementation to a non-contract address\"\n        );\n\n        bytes32 slot = IMPLEMENTATION_SLOT;\n\n        assembly {\n            sstore(slot, newImplementation)\n        }\n    }\n}\n\ncontract AdminUpgradeabilityProxy is UpgradeabilityProxy {\n    event AdminChanged(address previousAdmin, address newAdmin);\n\n    bytes32 private constant ADMIN_SLOT =\n        0x10d6a54a4754c8869d6886b5f5d7fbfa5b4522237ea5c60d11bc4e7a1ff9390b;\n\n    modifier ifAdmin() {\n        if (msg.sender == _admin()) {\n            _;\n        } else {\n            _fallback();\n        }\n    }\n\n    constructor(address _implementation)\n        public\n        UpgradeabilityProxy(_implementation)\n    {\n        assert(ADMIN_SLOT == keccak256(\"org.zeppelinos.proxy.admin\"));\n\n        _setAdmin(msg.sender);\n    }\n\n    function admin() external view ifAdmin returns (address) {\n        return _admin();\n    }\n\n    function implementation() external view ifAdmin returns (address) {\n        return _implementation();\n    }\n\n    function changeAdmin(address newAdmin) external ifAdmin {\n        require(\n            newAdmin != address(0),\n            \"Cannot change the admin of a proxy to the zero address\"\n        );\n        emit AdminChanged(_admin(), newAdmin);\n        _setAdmin(newAdmin);\n    }\n\n    function upgradeTo(address newImplementation) external ifAdmin {\n        _upgradeTo(newImplementation);\n    }\n\n    function upgradeToAndCall(address newImplementation, bytes data)\n        external\n        payable\n        ifAdmin\n    {\n        _upgradeTo(newImplementation);\n        require(address(this).call.value(msg.value)(data));\n    }\n\n    function _admin() internal view returns (address adm) {\n        bytes32 slot = ADMIN_SLOT;\n        assembly {\n            adm := sload(slot)\n        }\n    }\n\n    function _setAdmin(address newAdmin) internal {\n        bytes32 slot = ADMIN_SLOT;\n\n        assembly {\n            sstore(slot, newAdmin)\n        }\n    }\n\n    function _willFallback() internal {\n        require(\n            msg.sender != _admin(),\n            \"Cannot call fallback function from the proxy admin\"\n        );\n        super._willFallback();\n    }\n}\n\npragma solidity ^0.4.25;\n\ncontract FiatTokenProxy is AdminUpgradeabilityProxy {\n    constructor(address _implementation)\n        public\n        AdminUpgradeabilityProxy(_implementation)\n    {}\n}\n\npragma solidity ^0.4.25;\n\ncontract MyContract {\n    function getCurrentImplementation() external view returns (address) {\n        return\n            MyProxyContract(0x07865c6e87b9f70255377e024ace6630c1eaa37f)\n                .implementation();\n    }\n}\n\ninterface MyProxyContract {\n    function implementation() external view returns (address);\n}\n\n/*\nCompiling your contracts...\n===========================\n> Everything is up to date, there is nothing to compile.\n\n\nMigrations dry-run (simulation)\n===============================\n> Network name:    'sepolia-fork'\n> Network id:      11155111\n> Block gas limit: 30000000 (0x1c9c380)\n\n\n1_deploy_contract.js\n====================\n\n   Deploying 'Inbox'\n   -----------------\n   > block number:        3379733\n   > block timestamp:     1682701735\n   > account:             0x8872Bb5a0aD81a76AE2e0C84CD5491a22E84682C\n   > balance:             0.997530409993085148\n   > gas used:            493918 (0x7895e)\n   > gas price:           2.500000007 gwei\n   > value sent:          0 ETH\n   > total cost:          0.001234795003457426 ETH\n\n   -------------------------------------\n   > Total cost:     0.001234795003457426 ETH\n\nSummary\n=======\n> Total deployments:   1\n> Final cost:          0.001234795003457426 ETH\n\n\n\n\nStarting migrations...\n======================\n> Network name:    'sepolia'\n> Network id:      11155111\n> Block gas limit: 30000000 (0x1c9c380)\n\n\n1_deploy_contract.js\n====================\n\n   Deploying 'Inbox'\n   -----------------\n   > transaction hash:    0x3c3f601faad4b91778436b95164a0a7d98e92df1cff5b1a9a524ae1987f55184\n   > Blocks: 0            Seconds: 0\n   > contract address:    0x99bfCf07CdC3dd6C34aCcd9513132d6D0b0B4783\n   > block number:        3379737\n   > block timestamp:     1682701740\n   > account:             0x8872Bb5a0aD81a76AE2e0C84CD5491a22E84682C\n   > balance:             0.997530409993085148\n   > gas used:            493918 (0x7895e)\n   > gas price:           2.500000007 gwei\n   > value sent:          0 ETH\n   > total cost:          0.001234795003457426 ETH\n\n   > Saving artifacts\n   -------------------------------------\n   > Total cost:     0.001234795003457426 ETH\n\nSummary\n=======\n> Total deployments:   1\n> Final cost:          0.001234795003457426 ETH\n*/\n",
  "sourcePath": "/Users/olhernandez/Documents/Projects/Languages/Solidity/1stproject/contracts/Proxy.sol",
  "compiler": {
    "name": "solc",
    "version": "0.4.25+commit.59dbf8f1.Emscripten.clang"
  },
  "schemaVersion": "3.4.13",
  "updatedAt": "2023-04-28T22:27:46.352Z",
  "devdoc": {
    "methods": {}
  },
  "userdoc": {
    "methods": {}
  }
}